{
  "_format": "hh-sol-artifact-1",
  "contractName": "StakeToken",
  "sourceName": "contracts/StakeToken.sol",
  "abi": [
    {
      "inputs": [],
      "stateMutability": "nonpayable",
      "type": "constructor"
    },
    {
      "anonymous": false,
      "inputs": [
        {
          "indexed": true,
          "internalType": "address",
          "name": "owner",
          "type": "address"
        },
        {
          "indexed": true,
          "internalType": "address",
          "name": "spender",
          "type": "address"
        },
        {
          "indexed": false,
          "internalType": "uint256",
          "name": "value",
          "type": "uint256"
        }
      ],
      "name": "Approval",
      "type": "event"
    },
    {
      "anonymous": false,
      "inputs": [
        {
          "indexed": true,
          "internalType": "address",
          "name": "previousOwner",
          "type": "address"
        },
        {
          "indexed": true,
          "internalType": "address",
          "name": "newOwner",
          "type": "address"
        }
      ],
      "name": "OwnershipTransferred",
      "type": "event"
    },
    {
      "anonymous": false,
      "inputs": [
        {
          "indexed": false,
          "internalType": "uint256",
          "name": "reward",
          "type": "uint256"
        }
      ],
      "name": "RewardAdded",
      "type": "event"
    },
    {
      "anonymous": false,
      "inputs": [
        {
          "indexed": true,
          "internalType": "address",
          "name": "user",
          "type": "address"
        },
        {
          "indexed": false,
          "internalType": "uint256",
          "name": "reward",
          "type": "uint256"
        }
      ],
      "name": "RewardPaid",
      "type": "event"
    },
    {
      "anonymous": false,
      "inputs": [
        {
          "indexed": false,
          "internalType": "uint256",
          "name": "newDuration",
          "type": "uint256"
        }
      ],
      "name": "RewardsDurationUpdated",
      "type": "event"
    },
    {
      "anonymous": false,
      "inputs": [
        {
          "indexed": true,
          "internalType": "address",
          "name": "user",
          "type": "address"
        },
        {
          "indexed": false,
          "internalType": "uint256",
          "name": "amount",
          "type": "uint256"
        }
      ],
      "name": "Staked",
      "type": "event"
    },
    {
      "anonymous": false,
      "inputs": [
        {
          "indexed": false,
          "internalType": "uint256",
          "name": "newPrice",
          "type": "uint256"
        }
      ],
      "name": "TokenPriceUpdated",
      "type": "event"
    },
    {
      "anonymous": false,
      "inputs": [
        {
          "indexed": true,
          "internalType": "address",
          "name": "from",
          "type": "address"
        },
        {
          "indexed": true,
          "internalType": "address",
          "name": "to",
          "type": "address"
        },
        {
          "indexed": false,
          "internalType": "uint256",
          "name": "value",
          "type": "uint256"
        }
      ],
      "name": "Transfer",
      "type": "event"
    },
    {
      "anonymous": false,
      "inputs": [
        {
          "indexed": true,
          "internalType": "address",
          "name": "user",
          "type": "address"
        },
        {
          "indexed": false,
          "internalType": "uint256",
          "name": "amount",
          "type": "uint256"
        }
      ],
      "name": "Withdrawn",
      "type": "event"
    },
    {
      "inputs": [
        {
          "internalType": "address",
          "name": "_stakeholder",
          "type": "address"
        }
      ],
      "name": "addStakeholder",
      "outputs": [],
      "stateMutability": "nonpayable",
      "type": "function"
    },
    {
      "inputs": [
        {
          "internalType": "address",
          "name": "owner",
          "type": "address"
        },
        {
          "internalType": "address",
          "name": "spender",
          "type": "address"
        }
      ],
      "name": "allowance",
      "outputs": [
        {
          "internalType": "uint256",
          "name": "",
          "type": "uint256"
        }
      ],
      "stateMutability": "view",
      "type": "function"
    },
    {
      "inputs": [
        {
          "internalType": "address",
          "name": "spender",
          "type": "address"
        },
        {
          "internalType": "uint256",
          "name": "amount",
          "type": "uint256"
        }
      ],
      "name": "approve",
      "outputs": [
        {
          "internalType": "bool",
          "name": "",
          "type": "bool"
        }
      ],
      "stateMutability": "nonpayable",
      "type": "function"
    },
    {
      "inputs": [
        {
          "internalType": "address",
          "name": "account",
          "type": "address"
        }
      ],
      "name": "balanceOf",
      "outputs": [
        {
          "internalType": "uint256",
          "name": "",
          "type": "uint256"
        }
      ],
      "stateMutability": "view",
      "type": "function"
    },
    {
      "inputs": [
        {
          "internalType": "address",
          "name": "receiver",
          "type": "address"
        }
      ],
      "name": "buyToken",
      "outputs": [
        {
          "internalType": "uint256",
          "name": "",
          "type": "uint256"
        }
      ],
      "stateMutability": "payable",
      "type": "function"
    },
    {
      "inputs": [
        {
          "internalType": "address",
          "name": "_stakeholder",
          "type": "address"
        }
      ],
      "name": "calculateReward",
      "outputs": [
        {
          "internalType": "uint256",
          "name": "",
          "type": "uint256"
        }
      ],
      "stateMutability": "view",
      "type": "function"
    },
    {
      "inputs": [
        {
          "internalType": "uint256",
          "name": "_stake",
          "type": "uint256"
        }
      ],
      "name": "createStake",
      "outputs": [],
      "stateMutability": "nonpayable",
      "type": "function"
    },
    {
      "inputs": [],
      "name": "decimals",
      "outputs": [
        {
          "internalType": "uint8",
          "name": "",
          "type": "uint8"
        }
      ],
      "stateMutability": "view",
      "type": "function"
    },
    {
      "inputs": [
        {
          "internalType": "address",
          "name": "spender",
          "type": "address"
        },
        {
          "internalType": "uint256",
          "name": "subtractedValue",
          "type": "uint256"
        }
      ],
      "name": "decreaseAllowance",
      "outputs": [
        {
          "internalType": "bool",
          "name": "",
          "type": "bool"
        }
      ],
      "stateMutability": "nonpayable",
      "type": "function"
    },
    {
      "inputs": [],
      "name": "distributeRewards",
      "outputs": [],
      "stateMutability": "nonpayable",
      "type": "function"
    },
    {
      "inputs": [
        {
          "internalType": "address",
          "name": "account",
          "type": "address"
        }
      ],
      "name": "earned",
      "outputs": [
        {
          "internalType": "uint256",
          "name": "",
          "type": "uint256"
        }
      ],
      "stateMutability": "view",
      "type": "function"
    },
    {
      "inputs": [],
      "name": "exit",
      "outputs": [],
      "stateMutability": "nonpayable",
      "type": "function"
    },
    {
      "inputs": [],
      "name": "getReward",
      "outputs": [],
      "stateMutability": "nonpayable",
      "type": "function"
    },
    {
      "inputs": [
        {
          "internalType": "address",
          "name": "spender",
          "type": "address"
        },
        {
          "internalType": "uint256",
          "name": "addedValue",
          "type": "uint256"
        }
      ],
      "name": "increaseAllowance",
      "outputs": [
        {
          "internalType": "bool",
          "name": "",
          "type": "bool"
        }
      ],
      "stateMutability": "nonpayable",
      "type": "function"
    },
    {
      "inputs": [
        {
          "internalType": "address",
          "name": "_address",
          "type": "address"
        }
      ],
      "name": "isStakeholder",
      "outputs": [
        {
          "internalType": "bool",
          "name": "",
          "type": "bool"
        },
        {
          "internalType": "uint256",
          "name": "",
          "type": "uint256"
        }
      ],
      "stateMutability": "view",
      "type": "function"
    },
    {
      "inputs": [],
      "name": "lastTimeRewardApplicable",
      "outputs": [
        {
          "internalType": "uint256",
          "name": "",
          "type": "uint256"
        }
      ],
      "stateMutability": "view",
      "type": "function"
    },
    {
      "inputs": [],
      "name": "lastUpdateTime",
      "outputs": [
        {
          "internalType": "uint256",
          "name": "",
          "type": "uint256"
        }
      ],
      "stateMutability": "view",
      "type": "function"
    },
    {
      "inputs": [
        {
          "internalType": "uint256",
          "name": "_tokenPrice",
          "type": "uint256"
        }
      ],
      "name": "modifyTokenBuyPrice",
      "outputs": [
        {
          "internalType": "uint256",
          "name": "",
          "type": "uint256"
        }
      ],
      "stateMutability": "nonpayable",
      "type": "function"
    },
    {
      "inputs": [],
      "name": "name",
      "outputs": [
        {
          "internalType": "string",
          "name": "",
          "type": "string"
        }
      ],
      "stateMutability": "view",
      "type": "function"
    },
    {
      "inputs": [],
      "name": "owner",
      "outputs": [
        {
          "internalType": "address",
          "name": "",
          "type": "address"
        }
      ],
      "stateMutability": "view",
      "type": "function"
    },
    {
      "inputs": [],
      "name": "periodFinish",
      "outputs": [
        {
          "internalType": "uint256",
          "name": "",
          "type": "uint256"
        }
      ],
      "stateMutability": "view",
      "type": "function"
    },
    {
      "inputs": [
        {
          "internalType": "uint256",
          "name": "_stake",
          "type": "uint256"
        }
      ],
      "name": "removeStake",
      "outputs": [],
      "stateMutability": "nonpayable",
      "type": "function"
    },
    {
      "inputs": [
        {
          "internalType": "address",
          "name": "_stakeholder",
          "type": "address"
        }
      ],
      "name": "removeStakeholder",
      "outputs": [],
      "stateMutability": "nonpayable",
      "type": "function"
    },
    {
      "inputs": [],
      "name": "renounceOwnership",
      "outputs": [],
      "stateMutability": "nonpayable",
      "type": "function"
    },
    {
      "inputs": [
        {
          "internalType": "address",
          "name": "_stakeholder",
          "type": "address"
        }
      ],
      "name": "rewardOf",
      "outputs": [
        {
          "internalType": "uint256",
          "name": "",
          "type": "uint256"
        }
      ],
      "stateMutability": "view",
      "type": "function"
    },
    {
      "inputs": [],
      "name": "rewardPerToken",
      "outputs": [
        {
          "internalType": "uint256",
          "name": "",
          "type": "uint256"
        }
      ],
      "stateMutability": "view",
      "type": "function"
    },
    {
      "inputs": [],
      "name": "rewardPerTokenStored",
      "outputs": [
        {
          "internalType": "uint256",
          "name": "",
          "type": "uint256"
        }
      ],
      "stateMutability": "view",
      "type": "function"
    },
    {
      "inputs": [],
      "name": "rewardRate",
      "outputs": [
        {
          "internalType": "uint256",
          "name": "",
          "type": "uint256"
        }
      ],
      "stateMutability": "view",
      "type": "function"
    },
    {
      "inputs": [],
      "name": "rewardsDuration",
      "outputs": [
        {
          "internalType": "uint256",
          "name": "",
          "type": "uint256"
        }
      ],
      "stateMutability": "view",
      "type": "function"
    },
    {
      "inputs": [
        {
          "internalType": "address",
          "name": "_stakeholder",
          "type": "address"
        }
      ],
      "name": "stakeOf",
      "outputs": [
        {
          "internalType": "uint256",
          "name": "",
          "type": "uint256"
        }
      ],
      "stateMutability": "view",
      "type": "function"
    },
    {
      "inputs": [],
      "name": "stakingBase",
      "outputs": [
        {
          "internalType": "uint256",
          "name": "",
          "type": "uint256"
        }
      ],
      "stateMutability": "view",
      "type": "function"
    },
    {
      "inputs": [],
      "name": "symbol",
      "outputs": [
        {
          "internalType": "string",
          "name": "",
          "type": "string"
        }
      ],
      "stateMutability": "view",
      "type": "function"
    },
    {
      "inputs": [],
      "name": "tokensPerEth",
      "outputs": [
        {
          "internalType": "uint256",
          "name": "",
          "type": "uint256"
        }
      ],
      "stateMutability": "view",
      "type": "function"
    },
    {
      "inputs": [],
      "name": "totalRewards",
      "outputs": [
        {
          "internalType": "uint256",
          "name": "",
          "type": "uint256"
        }
      ],
      "stateMutability": "view",
      "type": "function"
    },
    {
      "inputs": [],
      "name": "totalStakes",
      "outputs": [
        {
          "internalType": "uint256",
          "name": "",
          "type": "uint256"
        }
      ],
      "stateMutability": "view",
      "type": "function"
    },
    {
      "inputs": [],
      "name": "totalSupply",
      "outputs": [
        {
          "internalType": "uint256",
          "name": "",
          "type": "uint256"
        }
      ],
      "stateMutability": "view",
      "type": "function"
    },
    {
      "inputs": [
        {
          "internalType": "address",
          "name": "to",
          "type": "address"
        },
        {
          "internalType": "uint256",
          "name": "amount",
          "type": "uint256"
        }
      ],
      "name": "transfer",
      "outputs": [
        {
          "internalType": "bool",
          "name": "",
          "type": "bool"
        }
      ],
      "stateMutability": "nonpayable",
      "type": "function"
    },
    {
      "inputs": [
        {
          "internalType": "address",
          "name": "from",
          "type": "address"
        },
        {
          "internalType": "address",
          "name": "to",
          "type": "address"
        },
        {
          "internalType": "uint256",
          "name": "amount",
          "type": "uint256"
        }
      ],
      "name": "transferFrom",
      "outputs": [
        {
          "internalType": "bool",
          "name": "",
          "type": "bool"
        }
      ],
      "stateMutability": "nonpayable",
      "type": "function"
    },
    {
      "inputs": [
        {
          "internalType": "address",
          "name": "newOwner",
          "type": "address"
        }
      ],
      "name": "transferOwnership",
      "outputs": [],
      "stateMutability": "nonpayable",
      "type": "function"
    },
    {
      "inputs": [
        {
          "internalType": "address",
          "name": "",
          "type": "address"
        }
      ],
      "name": "userRewardPerTokenPaid",
      "outputs": [
        {
          "internalType": "uint256",
          "name": "",
          "type": "uint256"
        }
      ],
      "stateMutability": "view",
      "type": "function"
    },
    {
      "inputs": [],
      "name": "withdrawReward",
      "outputs": [],
      "stateMutability": "nonpayable",
      "type": "function"
    }
  ],
  "bytecode": "0x60a0604052670de0b6b3a76400006080908152506000600755600060085562093a806009556103e86010553480156200003757600080fd5b506040518060400160405280600681526020017f53616d45524300000000000000000000000000000000000000000000000000008152506040518060400160405280600381526020017f53524300000000000000000000000000000000000000000000000000000000008152508160039080519060200190620000bc9291906200039e565b508060049080519060200190620000d59291906200039e565b505050620000f8620000ec6200014460201b60201c565b6200014c60201b60201c565b60016006819055506200013e33620001156200021260201b60201c565b600a6200012391906200058e565b6103e8620001329190620006cb565b6200021b60201b60201c565b6200080d565b600033905090565b6000600560009054906101000a900473ffffffffffffffffffffffffffffffffffffffff16905081600560006101000a81548173ffffffffffffffffffffffffffffffffffffffff021916908373ffffffffffffffffffffffffffffffffffffffff1602179055508173ffffffffffffffffffffffffffffffffffffffff168173ffffffffffffffffffffffffffffffffffffffff167f8be0079c531659141344cd1fd0a4f28419497f9722a3daafe3b4186f6b6457e060405160405180910390a35050565b60006012905090565b600073ffffffffffffffffffffffffffffffffffffffff168273ffffffffffffffffffffffffffffffffffffffff1614156200028e576040517f08c379a0000000000000000000000000000000000000000000000000000000008152600401620002859062000486565b60405180910390fd5b620002a2600083836200039460201b60201c565b8060026000828254620002b69190620004d6565b92505081905550806000808473ffffffffffffffffffffffffffffffffffffffff1673ffffffffffffffffffffffffffffffffffffffff16815260200190815260200160002060008282546200030d9190620004d6565b925050819055508173ffffffffffffffffffffffffffffffffffffffff16600073ffffffffffffffffffffffffffffffffffffffff167fddf252ad1be2c89b69c2b068fc378daa952ba7f163c4a11628f55a4df523b3ef83604051620003749190620004a8565b60405180910390a362000390600083836200039960201b60201c565b5050565b505050565b505050565b828054620003ac9062000743565b90600052602060002090601f016020900481019282620003d057600085556200041c565b82601f10620003eb57805160ff19168380011785556200041c565b828001600101855582156200041c579182015b828111156200041b578251825591602001919060010190620003fe565b5b5090506200042b91906200042f565b5090565b5b808211156200044a57600081600090555060010162000430565b5090565b60006200045d601f83620004c5565b91506200046a82620007e4565b602082019050919050565b62000480816200072c565b82525050565b60006020820190508181036000830152620004a1816200044e565b9050919050565b6000602082019050620004bf600083018462000475565b92915050565b600082825260208201905092915050565b6000620004e3826200072c565b9150620004f0836200072c565b9250827fffffffffffffffffffffffffffffffffffffffffffffffffffffffffffffffff0382111562000528576200052762000779565b5b828201905092915050565b6000808291508390505b600185111562000585578086048111156200055d576200055c62000779565b5b60018516156200056d5780820291505b80810290506200057d85620007d7565b94506200053d565b94509492505050565b60006200059b826200072c565b9150620005a88362000736565b9250620005d77fffffffffffffffffffffffffffffffffffffffffffffffffffffffffffffffff8484620005df565b905092915050565b600082620005f15760019050620006c4565b81620006015760009050620006c4565b81600181146200061a576002811462000625576200065b565b6001915050620006c4565b60ff8411156200063a576200063962000779565b5b8360020a91508482111562000654576200065362000779565b5b50620006c4565b5060208310610133831016604e8410600b8410161715620006955782820a9050838111156200068f576200068e62000779565b5b620006c4565b620006a4848484600162000533565b92509050818404811115620006be57620006bd62000779565b5b81810290505b9392505050565b6000620006d8826200072c565b9150620006e5836200072c565b9250817fffffffffffffffffffffffffffffffffffffffffffffffffffffffffffffffff048311821515161562000721576200072062000779565b5b828202905092915050565b6000819050919050565b600060ff82169050919050565b600060028204905060018216806200075c57607f821691505b60208210811415620007735762000772620007a8565b5b50919050565b7f4e487b7100000000000000000000000000000000000000000000000000000000600052601160045260246000fd5b7f4e487b7100000000000000000000000000000000000000000000000000000000600052602260045260246000fd5b60008160011c9050919050565b7f45524332303a206d696e7420746f20746865207a65726f206164647265737300600082015250565b6080516138526200083760003960008181610a05015281816112700152611ddb01526138526000f3fe6080604052600436106102455760003560e01c8063834dc98411610139578063c8f33c91116100b6578063df136d651161007a578063df136d65146108c4578063e5c42fd1146108ef578063e9fad8ee14610918578063ebe2b12b1461092f578063ef037b901461095a578063f2fde38b1461099857610245565b8063c8f33c91146107c9578063cbdd69b5146107f4578063cd3daf9d1461081f578063d82e39621461084a578063dd62ed3e1461088757610245565b8063a457c2d7116100fd578063a457c2d7146106e4578063a9059cbb14610721578063bcb0c2d71461075e578063bf9befb114610787578063c885bc58146107b257610245565b8063834dc984146105eb5780638b876347146106285780638da5cb5b14610665578063939624ab1461069057806395d89b41146106b957610245565b806339509351116101c757806370a082311161018b57806370a0823114610511578063715018a61461054e5780637b0a47ee146105655780637e72fb521461059057806380faa57d146105c057610245565b8063395093511461043e5780633d18b9121461047b57806342623360146104925780636041c34f146104cf5780636f4a2cd0146104fa57610245565b80631bf6ddae1161020e5780631bf6ddae146103455780631d62ebd91461036e57806323b872dd146103ab578063313ce567146103e8578063386a95251461041357610245565b80628cc2621461024a57806306fdde0314610287578063095ea7b3146102b25780630e15561a146102ef57806318160ddd1461031a575b600080fd5b34801561025657600080fd5b50610271600480360381019061026c9190612ad0565b6109c1565b60405161027e9190613046565b60405180910390f35b34801561029357600080fd5b5061029c610aa4565b6040516102a99190612e84565b60405180910390f35b3480156102be57600080fd5b506102d960048036038101906102d49190612b84565b610b36565b6040516102e69190612e40565b60405180910390f35b3480156102fb57600080fd5b50610304610b59565b6040516103119190613046565b60405180910390f35b34801561032657600080fd5b5061032f610c44565b60405161033c9190613046565b60405180910390f35b34801561035157600080fd5b5061036c60048036038101906103679190612bc0565b610c4e565b005b34801561037a57600080fd5b5061039560048036038101906103909190612ad0565b610ecb565b6040516103a29190613046565b60405180910390f35b3480156103b757600080fd5b506103d260048036038101906103cd9190612b35565b610f14565b6040516103df9190612e40565b60405180910390f35b3480156103f457600080fd5b506103fd610f43565b60405161040a9190613061565b60405180910390f35b34801561041f57600080fd5b50610428610f4c565b6040516104359190613046565b60405180910390f35b34801561044a57600080fd5b5061046560048036038101906104609190612b84565b610f52565b6040516104729190612e40565b60405180910390f35b34801561048757600080fd5b50610490610ffc565b005b34801561049e57600080fd5b506104b960048036038101906104b49190612ad0565b611225565b6040516104c69190613046565b60405180910390f35b3480156104db57600080fd5b506104e461126e565b6040516104f19190613046565b60405180910390f35b34801561050657600080fd5b5061050f611292565b005b34801561051d57600080fd5b5061053860048036038101906105339190612ad0565b611442565b6040516105459190613046565b60405180910390f35b34801561055a57600080fd5b5061056361148a565b005b34801561057157600080fd5b5061057a611512565b6040516105879190613046565b60405180910390f35b6105aa60048036038101906105a59190612ad0565b611518565b6040516105b79190613046565b60405180910390f35b3480156105cc57600080fd5b506105d5611568565b6040516105e29190613046565b60405180910390f35b3480156105f757600080fd5b50610612600480360381019061060d9190612bc0565b611582565b60405161061f9190613046565b60405180910390f35b34801561063457600080fd5b5061064f600480360381019061064a9190612ad0565b61164a565b60405161065c9190613046565b60405180910390f35b34801561067157600080fd5b5061067a611662565b6040516106879190612e25565b60405180910390f35b34801561069c57600080fd5b506106b760048036038101906106b29190612bc0565b61168c565b005b3480156106c557600080fd5b506106ce611909565b6040516106db9190612e84565b60405180910390f35b3480156106f057600080fd5b5061070b60048036038101906107069190612b84565b61199b565b6040516107189190612e40565b60405180910390f35b34801561072d57600080fd5b5061074860048036038101906107439190612b84565b611a85565b6040516107559190612e40565b60405180910390f35b34801561076a57600080fd5b5061078560048036038101906107809190612ad0565b611aa8565b005b34801561079357600080fd5b5061079c611c29565b6040516107a99190613046565b60405180910390f35b3480156107be57600080fd5b506107c7611d14565b005b3480156107d557600080fd5b506107de611daa565b6040516107eb9190613046565b60405180910390f35b34801561080057600080fd5b50610809611db0565b6040516108169190613046565b60405180910390f35b34801561082b57600080fd5b50610834611db6565b6040516108419190613046565b60405180910390f35b34801561085657600080fd5b50610871600480360381019061086c9190612ad0565b611e43565b60405161087e9190613046565b60405180910390f35b34801561089357600080fd5b506108ae60048036038101906108a99190612af9565b611e98565b6040516108bb9190613046565b60405180910390f35b3480156108d057600080fd5b506108d9611f1f565b6040516108e69190613046565b60405180910390f35b3480156108fb57600080fd5b5061091660048036038101906109119190612ad0565b611f25565b005b34801561092457600080fd5b5061092d611fa0565b005b34801561093b57600080fd5b50610944611fbb565b6040516109519190613046565b60405180910390f35b34801561096657600080fd5b50610981600480360381019061097c9190612ad0565b611fc1565b60405161098f929190612e5b565b60405180910390f35b3480156109a457600080fd5b506109bf60048036038101906109ba9190612ad0565b61209b565b005b6000600f60008373ffffffffffffffffffffffffffffffffffffffff1673ffffffffffffffffffffffffffffffffffffffff168152602001908152602001600020547f0000000000000000000000000000000000000000000000000000000000000000600c60008573ffffffffffffffffffffffffffffffffffffffff1673ffffffffffffffffffffffffffffffffffffffff16815260200190815260200160002054610a6c611db6565b610a7691906132ea565b610a7f85611442565b610a899190613290565b610a9391906130ee565b610a9d9190613098565b9050919050565b606060038054610ab3906133a6565b80601f0160208091040260200160405190810160405280929190818152602001828054610adf906133a6565b8015610b2c5780601f10610b0157610100808354040283529160200191610b2c565b820191906000526020600020905b815481529060010190602001808311610b0f57829003601f168201915b5050505050905090565b600080610b41612193565b9050610b4e81858561219b565b600191505092915050565b6000806000905060005b600d80549050811015610c3c57610c26600f6000600d8481548110610bb1577f4e487b7100000000000000000000000000000000000000000000000000000000600052603260045260246000fd5b9060005260206000200160009054906101000a900473ffffffffffffffffffffffffffffffffffffffff1673ffffffffffffffffffffffffffffffffffffffff1673ffffffffffffffffffffffffffffffffffffffff168152602001908152602001600020548361236690919063ffffffff16565b9150600181610c359190613098565b9050610b63565b508091505090565b6000600254905090565b60026006541415610c94576040517f08c379a0000000000000000000000000000000000000000000000000000000008152600401610c8b90612fe6565b60405180910390fd5b600260068190555033610ca5611db6565b600b81905550610cb3611568565b600a81905550600073ffffffffffffffffffffffffffffffffffffffff168173ffffffffffffffffffffffffffffffffffffffff1614610d8057610cf6816109c1565b600f60008373ffffffffffffffffffffffffffffffffffffffff1673ffffffffffffffffffffffffffffffffffffffff16815260200190815260200160002081905550600b54600c60008373ffffffffffffffffffffffffffffffffffffffff1673ffffffffffffffffffffffffffffffffffffffff168152602001908152602001600020819055505b610d8a338361237c565b6000600e60003373ffffffffffffffffffffffffffffffffffffffff1673ffffffffffffffffffffffffffffffffffffffff168152602001908152602001600020541415610ddc57610ddb33611f25565b5b610e2e82600e60003373ffffffffffffffffffffffffffffffffffffffff1673ffffffffffffffffffffffffffffffffffffffff1681526020019081526020016000205461236690919063ffffffff16565b600e60003373ffffffffffffffffffffffffffffffffffffffff1673ffffffffffffffffffffffffffffffffffffffff168152602001908152602001600020819055503373ffffffffffffffffffffffffffffffffffffffff167f9e71bc8eea02a63969f509818f2dafb9254532904319f9dbda79b67bd34a5f3d83604051610eb79190613046565b60405180910390a250600160068190555050565b6000600f60008373ffffffffffffffffffffffffffffffffffffffff1673ffffffffffffffffffffffffffffffffffffffff168152602001908152602001600020549050919050565b600080610f1f612193565b9050610f2c858285612553565b610f378585856125df565b60019150509392505050565b60006012905090565b60095481565b600080610f5d612193565b9050610ff1818585600160008673ffffffffffffffffffffffffffffffffffffffff1673ffffffffffffffffffffffffffffffffffffffff16815260200190815260200160002060008973ffffffffffffffffffffffffffffffffffffffff1673ffffffffffffffffffffffffffffffffffffffff16815260200190815260200160002054610fec9190613098565b61219b565b600191505092915050565b60026006541415611042576040517f08c379a000000000000000000000000000000000000000000000000000000000815260040161103990612fe6565b60405180910390fd5b600260068190555033611053611db6565b600b81905550611061611568565b600a81905550600073ffffffffffffffffffffffffffffffffffffffff168173ffffffffffffffffffffffffffffffffffffffff161461112e576110a4816109c1565b600f60008373ffffffffffffffffffffffffffffffffffffffff1673ffffffffffffffffffffffffffffffffffffffff16815260200190815260200160002081905550600b54600c60008373ffffffffffffffffffffffffffffffffffffffff1673ffffffffffffffffffffffffffffffffffffffff168152602001908152602001600020819055505b6000600f60003373ffffffffffffffffffffffffffffffffffffffff1673ffffffffffffffffffffffffffffffffffffffff1681526020019081526020016000205490506000811115611219576000600f60003373ffffffffffffffffffffffffffffffffffffffff1673ffffffffffffffffffffffffffffffffffffffff168152602001908152602001600020819055506111ca3382612860565b3373ffffffffffffffffffffffffffffffffffffffff167fe2403640ba68fed3a2f88b7557551d1993f84b99bb10ff833f0cf8db0c5e0486826040516112109190613046565b60405180910390a25b50506001600681905550565b6000600e60008373ffffffffffffffffffffffffffffffffffffffff1673ffffffffffffffffffffffffffffffffffffffff168152602001908152602001600020549050919050565b7f000000000000000000000000000000000000000000000000000000000000000081565b61129a612193565b73ffffffffffffffffffffffffffffffffffffffff166112b8611662565b73ffffffffffffffffffffffffffffffffffffffff161461130e576040517f08c379a000000000000000000000000000000000000000000000000000000000815260040161130590612f66565b60405180910390fd5b60005b600d8054905081101561143f576000600d828154811061135a577f4e487b7100000000000000000000000000000000000000000000000000000000600052603260045260246000fd5b9060005260206000200160009054906101000a900473ffffffffffffffffffffffffffffffffffffffff169050600061139282611e43565b90506113e681600f60008573ffffffffffffffffffffffffffffffffffffffff1673ffffffffffffffffffffffffffffffffffffffff1681526020019081526020016000205461236690919063ffffffff16565b600f60008473ffffffffffffffffffffffffffffffffffffffff1673ffffffffffffffffffffffffffffffffffffffff1681526020019081526020016000208190555050506001816114389190613098565b9050611311565b50565b60008060008373ffffffffffffffffffffffffffffffffffffffff1673ffffffffffffffffffffffffffffffffffffffff168152602001908152602001600020549050919050565b611492612193565b73ffffffffffffffffffffffffffffffffffffffff166114b0611662565b73ffffffffffffffffffffffffffffffffffffffff1614611506576040517f08c379a00000000000000000000000000000000000000000000000000000000081526004016114fd90612f66565b60405180910390fd5b61151060006129c0565b565b60085481565b600080601054611526610f43565b600a6115329190613172565b600161153e9190613290565b3461154991906130ee565b6115539190613290565b905061155f8382612860565b80915050919050565b6000600754421061157b5760075461157d565b425b905090565b600061158c612193565b73ffffffffffffffffffffffffffffffffffffffff166115aa611662565b73ffffffffffffffffffffffffffffffffffffffff1614611600576040517f08c379a00000000000000000000000000000000000000000000000000000000081526004016115f790612f66565b60405180910390fd5b816010819055507f6b361c807733cc94a3b7bda39c1c94dcc0511e91aa47b0f7f918068e939768906010546040516116389190613046565b60405180910390a16010549050919050565b600c6020528060005260406000206000915090505481565b6000600560009054906101000a900473ffffffffffffffffffffffffffffffffffffffff16905090565b600260065414156116d2576040517f08c379a00000000000000000000000000000000000000000000000000000000081526004016116c990612fe6565b60405180910390fd5b6002600681905550336116e3611db6565b600b819055506116f1611568565b600a81905550600073ffffffffffffffffffffffffffffffffffffffff168173ffffffffffffffffffffffffffffffffffffffff16146117be57611734816109c1565b600f60008373ffffffffffffffffffffffffffffffffffffffff1673ffffffffffffffffffffffffffffffffffffffff16815260200190815260200160002081905550600b54600c60008373ffffffffffffffffffffffffffffffffffffffff1673ffffffffffffffffffffffffffffffffffffffff168152602001908152602001600020819055505b61181082600e60003373ffffffffffffffffffffffffffffffffffffffff1673ffffffffffffffffffffffffffffffffffffffff16815260200190815260200160002054612a8690919063ffffffff16565b600e60003373ffffffffffffffffffffffffffffffffffffffff1673ffffffffffffffffffffffffffffffffffffffff168152602001908152602001600020819055506000600e60003373ffffffffffffffffffffffffffffffffffffffff1673ffffffffffffffffffffffffffffffffffffffff1681526020019081526020016000205414156118a5576118a433611aa8565b5b6118af3383612860565b3373ffffffffffffffffffffffffffffffffffffffff167f7084f5476618d8e60b11ef0d7d3f06914655adb8793e28ff7f018d4c76d505d5836040516118f59190613046565b60405180910390a250600160068190555050565b606060048054611918906133a6565b80601f0160208091040260200160405190810160405280929190818152602001828054611944906133a6565b80156119915780601f1061196657610100808354040283529160200191611991565b820191906000526020600020905b81548152906001019060200180831161197457829003601f168201915b5050505050905090565b6000806119a6612193565b90506000600160008373ffffffffffffffffffffffffffffffffffffffff1673ffffffffffffffffffffffffffffffffffffffff16815260200190815260200160002060008673ffffffffffffffffffffffffffffffffffffffff1673ffffffffffffffffffffffffffffffffffffffff16815260200190815260200160002054905083811015611a6c576040517f08c379a0000000000000000000000000000000000000000000000000000000008152600401611a6390613006565b60405180910390fd5b611a79828686840361219b565b60019250505092915050565b600080611a90612193565b9050611a9d8185856125df565b600191505092915050565b600080611ab483611fc1565b915091508115611c2457600d6001600d80549050611ad291906132ea565b81548110611b09577f4e487b7100000000000000000000000000000000000000000000000000000000600052603260045260246000fd5b9060005260206000200160009054906101000a900473ffffffffffffffffffffffffffffffffffffffff16600d8281548110611b6e577f4e487b7100000000000000000000000000000000000000000000000000000000600052603260045260246000fd5b9060005260206000200160006101000a81548173ffffffffffffffffffffffffffffffffffffffff021916908373ffffffffffffffffffffffffffffffffffffffff160217905550600d805480611bee577f4e487b7100000000000000000000000000000000000000000000000000000000600052603160045260246000fd5b6001900381819060005260206000200160006101000a81549073ffffffffffffffffffffffffffffffffffffffff021916905590555b505050565b6000806000905060005b600d80549050811015611d0c57611cf6600e6000600d8481548110611c81577f4e487b7100000000000000000000000000000000000000000000000000000000600052603260045260246000fd5b9060005260206000200160009054906101000a900473ffffffffffffffffffffffffffffffffffffffff1673ffffffffffffffffffffffffffffffffffffffff1673ffffffffffffffffffffffffffffffffffffffff168152602001908152602001600020548361236690919063ffffffff16565b9150600181611d059190613098565b9050611c33565b508091505090565b6000600f60003373ffffffffffffffffffffffffffffffffffffffff1673ffffffffffffffffffffffffffffffffffffffff1681526020019081526020016000205490506000600f60003373ffffffffffffffffffffffffffffffffffffffff1673ffffffffffffffffffffffffffffffffffffffff16815260200190815260200160002081905550611da73382612860565b50565b600a5481565b60105481565b600080611dc1610c44565b1415611dd157600b549050611e40565b611dd9610c44565b7f0000000000000000000000000000000000000000000000000000000000000000600854600a54611e08611568565b611e1291906132ea565b611e1c9190613290565b611e269190613290565b611e3091906130ee565b600b54611e3d9190613098565b90505b90565b60006064600e60008473ffffffffffffffffffffffffffffffffffffffff1673ffffffffffffffffffffffffffffffffffffffff16815260200190815260200160002054611e9191906130ee565b9050919050565b6000600160008473ffffffffffffffffffffffffffffffffffffffff1673ffffffffffffffffffffffffffffffffffffffff16815260200190815260200160002060008373ffffffffffffffffffffffffffffffffffffffff1673ffffffffffffffffffffffffffffffffffffffff16815260200190815260200160002054905092915050565b600b5481565b6000611f3082611fc1565b50905080611f9c57600d829080600181540180825580915050600190039060005260206000200160009091909190916101000a81548173ffffffffffffffffffffffffffffffffffffffff021916908373ffffffffffffffffffffffffffffffffffffffff1602179055505b5050565b611fb1611fac33611442565b61168c565b611fb9610ffc565b565b60075481565b60008060005b600d8054905081101561208d57600d818154811061200e577f4e487b7100000000000000000000000000000000000000000000000000000000600052603260045260246000fd5b9060005260206000200160009054906101000a900473ffffffffffffffffffffffffffffffffffffffff1673ffffffffffffffffffffffffffffffffffffffff168473ffffffffffffffffffffffffffffffffffffffff161415612079576001819250925050612096565b6001816120869190613098565b9050611fc7565b50600080915091505b915091565b6120a3612193565b73ffffffffffffffffffffffffffffffffffffffff166120c1611662565b73ffffffffffffffffffffffffffffffffffffffff1614612117576040517f08c379a000000000000000000000000000000000000000000000000000000000815260040161210e90612f66565b60405180910390fd5b600073ffffffffffffffffffffffffffffffffffffffff168173ffffffffffffffffffffffffffffffffffffffff161415612187576040517f08c379a000000000000000000000000000000000000000000000000000000000815260040161217e90612ee6565b60405180910390fd5b612190816129c0565b50565b600033905090565b600073ffffffffffffffffffffffffffffffffffffffff168373ffffffffffffffffffffffffffffffffffffffff16141561220b576040517f08c379a000000000000000000000000000000000000000000000000000000000815260040161220290612fc6565b60405180910390fd5b600073ffffffffffffffffffffffffffffffffffffffff168273ffffffffffffffffffffffffffffffffffffffff16141561227b576040517f08c379a000000000000000000000000000000000000000000000000000000000815260040161227290612f06565b60405180910390fd5b80600160008573ffffffffffffffffffffffffffffffffffffffff1673ffffffffffffffffffffffffffffffffffffffff16815260200190815260200160002060008473ffffffffffffffffffffffffffffffffffffffff1673ffffffffffffffffffffffffffffffffffffffff168152602001908152602001600020819055508173ffffffffffffffffffffffffffffffffffffffff168373ffffffffffffffffffffffffffffffffffffffff167f8c5be1e5ebec7d5bd14f71427d1e84f3dd0314c0f7b2291e5b200ac8c7c3b925836040516123599190613046565b60405180910390a3505050565b600081836123749190613098565b905092915050565b600073ffffffffffffffffffffffffffffffffffffffff168273ffffffffffffffffffffffffffffffffffffffff1614156123ec576040517f08c379a00000000000000000000000000000000000000000000000000000000081526004016123e390612f86565b60405180910390fd5b6123f882600083612a9c565b60008060008473ffffffffffffffffffffffffffffffffffffffff1673ffffffffffffffffffffffffffffffffffffffff1681526020019081526020016000205490508181101561247e576040517f08c379a000000000000000000000000000000000000000000000000000000000815260040161247590612ec6565b60405180910390fd5b8181036000808573ffffffffffffffffffffffffffffffffffffffff1673ffffffffffffffffffffffffffffffffffffffff1681526020019081526020016000208190555081600260008282546124d591906132ea565b92505081905550600073ffffffffffffffffffffffffffffffffffffffff168373ffffffffffffffffffffffffffffffffffffffff167fddf252ad1be2c89b69c2b068fc378daa952ba7f163c4a11628f55a4df523b3ef8460405161253a9190613046565b60405180910390a361254e83600084612aa1565b505050565b600061255f8484611e98565b90507fffffffffffffffffffffffffffffffffffffffffffffffffffffffffffffffff81146125d957818110156125cb576040517f08c379a00000000000000000000000000000000000000000000000000000000081526004016125c290612f26565b60405180910390fd5b6125d8848484840361219b565b5b50505050565b600073ffffffffffffffffffffffffffffffffffffffff168373ffffffffffffffffffffffffffffffffffffffff16141561264f576040517f08c379a000000000000000000000000000000000000000000000000000000000815260040161264690612fa6565b60405180910390fd5b600073ffffffffffffffffffffffffffffffffffffffff168273ffffffffffffffffffffffffffffffffffffffff1614156126bf576040517f08c379a00000000000000000000000000000000000000000000000000000000081526004016126b690612ea6565b60405180910390fd5b6126ca838383612a9c565b60008060008573ffffffffffffffffffffffffffffffffffffffff1673ffffffffffffffffffffffffffffffffffffffff16815260200190815260200160002054905081811015612750576040517f08c379a000000000000000000000000000000000000000000000000000000000815260040161274790612f46565b60405180910390fd5b8181036000808673ffffffffffffffffffffffffffffffffffffffff1673ffffffffffffffffffffffffffffffffffffffff16815260200190815260200160002081905550816000808573ffffffffffffffffffffffffffffffffffffffff1673ffffffffffffffffffffffffffffffffffffffff16815260200190815260200160002060008282546127e39190613098565b925050819055508273ffffffffffffffffffffffffffffffffffffffff168473ffffffffffffffffffffffffffffffffffffffff167fddf252ad1be2c89b69c2b068fc378daa952ba7f163c4a11628f55a4df523b3ef846040516128479190613046565b60405180910390a361285a848484612aa1565b50505050565b600073ffffffffffffffffffffffffffffffffffffffff168273ffffffffffffffffffffffffffffffffffffffff1614156128d0576040517f08c379a00000000000000000000000000000000000000000000000000000000081526004016128c790613026565b60405180910390fd5b6128dc60008383612a9c565b80600260008282546128ee9190613098565b92505081905550806000808473ffffffffffffffffffffffffffffffffffffffff1673ffffffffffffffffffffffffffffffffffffffff16815260200190815260200160002060008282546129439190613098565b925050819055508173ffffffffffffffffffffffffffffffffffffffff16600073ffffffffffffffffffffffffffffffffffffffff167fddf252ad1be2c89b69c2b068fc378daa952ba7f163c4a11628f55a4df523b3ef836040516129a89190613046565b60405180910390a36129bc60008383612aa1565b5050565b6000600560009054906101000a900473ffffffffffffffffffffffffffffffffffffffff16905081600560006101000a81548173ffffffffffffffffffffffffffffffffffffffff021916908373ffffffffffffffffffffffffffffffffffffffff1602179055508173ffffffffffffffffffffffffffffffffffffffff168173ffffffffffffffffffffffffffffffffffffffff167f8be0079c531659141344cd1fd0a4f28419497f9722a3daafe3b4186f6b6457e060405160405180910390a35050565b60008183612a9491906132ea565b905092915050565b505050565b505050565b600081359050612ab5816137ee565b92915050565b600081359050612aca81613805565b92915050565b600060208284031215612ae257600080fd5b6000612af084828501612aa6565b91505092915050565b60008060408385031215612b0c57600080fd5b6000612b1a85828601612aa6565b9250506020612b2b85828601612aa6565b9150509250929050565b600080600060608486031215612b4a57600080fd5b6000612b5886828701612aa6565b9350506020612b6986828701612aa6565b9250506040612b7a86828701612abb565b9150509250925092565b60008060408385031215612b9757600080fd5b6000612ba585828601612aa6565b9250506020612bb685828601612abb565b9150509250929050565b600060208284031215612bd257600080fd5b6000612be084828501612abb565b91505092915050565b612bf28161331e565b82525050565b612c0181613330565b82525050565b6000612c128261307c565b612c1c8185613087565b9350612c2c818560208601613373565b612c3581613465565b840191505092915050565b6000612c4d602383613087565b9150612c5882613483565b604082019050919050565b6000612c70602283613087565b9150612c7b826134d2565b604082019050919050565b6000612c93602683613087565b9150612c9e82613521565b604082019050919050565b6000612cb6602283613087565b9150612cc182613570565b604082019050919050565b6000612cd9601d83613087565b9150612ce4826135bf565b602082019050919050565b6000612cfc602683613087565b9150612d07826135e8565b604082019050919050565b6000612d1f602083613087565b9150612d2a82613637565b602082019050919050565b6000612d42602183613087565b9150612d4d82613660565b604082019050919050565b6000612d65602583613087565b9150612d70826136af565b604082019050919050565b6000612d88602483613087565b9150612d93826136fe565b604082019050919050565b6000612dab601f83613087565b9150612db68261374d565b602082019050919050565b6000612dce602583613087565b9150612dd982613776565b604082019050919050565b6000612df1601f83613087565b9150612dfc826137c5565b602082019050919050565b612e108161335c565b82525050565b612e1f81613366565b82525050565b6000602082019050612e3a6000830184612be9565b92915050565b6000602082019050612e556000830184612bf8565b92915050565b6000604082019050612e706000830185612bf8565b612e7d6020830184612e07565b9392505050565b60006020820190508181036000830152612e9e8184612c07565b905092915050565b60006020820190508181036000830152612ebf81612c40565b9050919050565b60006020820190508181036000830152612edf81612c63565b9050919050565b60006020820190508181036000830152612eff81612c86565b9050919050565b60006020820190508181036000830152612f1f81612ca9565b9050919050565b60006020820190508181036000830152612f3f81612ccc565b9050919050565b60006020820190508181036000830152612f5f81612cef565b9050919050565b60006020820190508181036000830152612f7f81612d12565b9050919050565b60006020820190508181036000830152612f9f81612d35565b9050919050565b60006020820190508181036000830152612fbf81612d58565b9050919050565b60006020820190508181036000830152612fdf81612d7b565b9050919050565b60006020820190508181036000830152612fff81612d9e565b9050919050565b6000602082019050818103600083015261301f81612dc1565b9050919050565b6000602082019050818103600083015261303f81612de4565b9050919050565b600060208201905061305b6000830184612e07565b92915050565b60006020820190506130766000830184612e16565b92915050565b600081519050919050565b600082825260208201905092915050565b60006130a38261335c565b91506130ae8361335c565b9250827fffffffffffffffffffffffffffffffffffffffffffffffffffffffffffffffff038211156130e3576130e26133d8565b5b828201905092915050565b60006130f98261335c565b91506131048361335c565b92508261311457613113613407565b5b828204905092915050565b6000808291508390505b600185111561316957808604811115613145576131446133d8565b5b60018516156131545780820291505b808102905061316285613476565b9450613129565b94509492505050565b600061317d8261335c565b915061318883613366565b92506131b57fffffffffffffffffffffffffffffffffffffffffffffffffffffffffffffffff84846131bd565b905092915050565b6000826131cd5760019050613289565b816131db5760009050613289565b81600181146131f157600281146131fb5761322a565b6001915050613289565b60ff84111561320d5761320c6133d8565b5b8360020a915084821115613224576132236133d8565b5b50613289565b5060208310610133831016604e8410600b841016171561325f5782820a90508381111561325a576132596133d8565b5b613289565b61326c848484600161311f565b92509050818404811115613283576132826133d8565b5b81810290505b9392505050565b600061329b8261335c565b91506132a68361335c565b9250817fffffffffffffffffffffffffffffffffffffffffffffffffffffffffffffffff04831182151516156132df576132de6133d8565b5b828202905092915050565b60006132f58261335c565b91506133008361335c565b925082821015613313576133126133d8565b5b828203905092915050565b60006133298261333c565b9050919050565b60008115159050919050565b600073ffffffffffffffffffffffffffffffffffffffff82169050919050565b6000819050919050565b600060ff82169050919050565b60005b83811015613391578082015181840152602081019050613376565b838111156133a0576000848401525b50505050565b600060028204905060018216806133be57607f821691505b602082108114156133d2576133d1613436565b5b50919050565b7f4e487b7100000000000000000000000000000000000000000000000000000000600052601160045260246000fd5b7f4e487b7100000000000000000000000000000000000000000000000000000000600052601260045260246000fd5b7f4e487b7100000000000000000000000000000000000000000000000000000000600052602260045260246000fd5b6000601f19601f8301169050919050565b60008160011c9050919050565b7f45524332303a207472616e7366657220746f20746865207a65726f206164647260008201527f6573730000000000000000000000000000000000000000000000000000000000602082015250565b7f45524332303a206275726e20616d6f756e7420657863656564732062616c616e60008201527f6365000000000000000000000000000000000000000000000000000000000000602082015250565b7f4f776e61626c653a206e6577206f776e657220697320746865207a65726f206160008201527f6464726573730000000000000000000000000000000000000000000000000000602082015250565b7f45524332303a20617070726f766520746f20746865207a65726f20616464726560008201527f7373000000000000000000000000000000000000000000000000000000000000602082015250565b7f45524332303a20696e73756666696369656e7420616c6c6f77616e6365000000600082015250565b7f45524332303a207472616e7366657220616d6f756e742065786365656473206260008201527f616c616e63650000000000000000000000000000000000000000000000000000602082015250565b7f4f776e61626c653a2063616c6c6572206973206e6f7420746865206f776e6572600082015250565b7f45524332303a206275726e2066726f6d20746865207a65726f2061646472657360008201527f7300000000000000000000000000000000000000000000000000000000000000602082015250565b7f45524332303a207472616e736665722066726f6d20746865207a65726f20616460008201527f6472657373000000000000000000000000000000000000000000000000000000602082015250565b7f45524332303a20617070726f76652066726f6d20746865207a65726f2061646460008201527f7265737300000000000000000000000000000000000000000000000000000000602082015250565b7f5265656e7472616e637947756172643a207265656e7472616e742063616c6c00600082015250565b7f45524332303a2064656372656173656420616c6c6f77616e63652062656c6f7760008201527f207a65726f000000000000000000000000000000000000000000000000000000602082015250565b7f45524332303a206d696e7420746f20746865207a65726f206164647265737300600082015250565b6137f78161331e565b811461380257600080fd5b50565b61380e8161335c565b811461381957600080fd5b5056fea2646970667358221220a2b8b2d6cde0f247cda953dcbfb59d3a9faf09b14aff8a6b933d633cf36e694864736f6c63430008040033",
  "linkReferences": {},
  "deployedLinkReferences": {}
}