{
  "_format": "hh-sol-artifact-1",
  "contractName": "StakeToken",
  "sourceName": "contracts/StakeToken.sol",
  "abi": [
    {
      "inputs": [],
      "stateMutability": "nonpayable",
      "type": "constructor"
    },
    {
      "anonymous": false,
      "inputs": [
        {
          "indexed": true,
          "internalType": "address",
          "name": "owner",
          "type": "address"
        },
        {
          "indexed": true,
          "internalType": "address",
          "name": "spender",
          "type": "address"
        },
        {
          "indexed": false,
          "internalType": "uint256",
          "name": "value",
          "type": "uint256"
        }
      ],
      "name": "Approval",
      "type": "event"
    },
    {
      "anonymous": false,
      "inputs": [
        {
          "indexed": true,
          "internalType": "address",
          "name": "previousOwner",
          "type": "address"
        },
        {
          "indexed": true,
          "internalType": "address",
          "name": "newOwner",
          "type": "address"
        }
      ],
      "name": "OwnershipTransferred",
      "type": "event"
    },
    {
      "anonymous": false,
      "inputs": [
        {
          "indexed": false,
          "internalType": "uint256",
          "name": "reward",
          "type": "uint256"
        }
      ],
      "name": "RewardAdded",
      "type": "event"
    },
    {
      "anonymous": false,
      "inputs": [
        {
          "indexed": true,
          "internalType": "address",
          "name": "user",
          "type": "address"
        },
        {
          "indexed": false,
          "internalType": "uint256",
          "name": "reward",
          "type": "uint256"
        }
      ],
      "name": "RewardPaid",
      "type": "event"
    },
    {
      "anonymous": false,
      "inputs": [
        {
          "indexed": false,
          "internalType": "uint256",
          "name": "newDuration",
          "type": "uint256"
        }
      ],
      "name": "RewardsDurationUpdated",
      "type": "event"
    },
    {
      "anonymous": false,
      "inputs": [
        {
          "indexed": true,
          "internalType": "address",
          "name": "user",
          "type": "address"
        },
        {
          "indexed": false,
          "internalType": "uint256",
          "name": "amount",
          "type": "uint256"
        }
      ],
      "name": "Staked",
      "type": "event"
    },
    {
      "anonymous": false,
      "inputs": [
        {
          "indexed": false,
          "internalType": "uint256",
          "name": "newPrice",
          "type": "uint256"
        }
      ],
      "name": "TokenPriceUpdated",
      "type": "event"
    },
    {
      "anonymous": false,
      "inputs": [
        {
          "indexed": true,
          "internalType": "address",
          "name": "from",
          "type": "address"
        },
        {
          "indexed": true,
          "internalType": "address",
          "name": "to",
          "type": "address"
        },
        {
          "indexed": false,
          "internalType": "uint256",
          "name": "value",
          "type": "uint256"
        }
      ],
      "name": "Transfer",
      "type": "event"
    },
    {
      "anonymous": false,
      "inputs": [
        {
          "indexed": true,
          "internalType": "address",
          "name": "user",
          "type": "address"
        },
        {
          "indexed": false,
          "internalType": "uint256",
          "name": "amount",
          "type": "uint256"
        }
      ],
      "name": "Withdrawn",
      "type": "event"
    },
    {
      "inputs": [
        {
          "internalType": "address",
          "name": "_stakeholder",
          "type": "address"
        }
      ],
      "name": "addStakeholder",
      "outputs": [],
      "stateMutability": "nonpayable",
      "type": "function"
    },
    {
      "inputs": [
        {
          "internalType": "address",
          "name": "owner",
          "type": "address"
        },
        {
          "internalType": "address",
          "name": "spender",
          "type": "address"
        }
      ],
      "name": "allowance",
      "outputs": [
        {
          "internalType": "uint256",
          "name": "",
          "type": "uint256"
        }
      ],
      "stateMutability": "view",
      "type": "function"
    },
    {
      "inputs": [
        {
          "internalType": "address",
          "name": "spender",
          "type": "address"
        },
        {
          "internalType": "uint256",
          "name": "amount",
          "type": "uint256"
        }
      ],
      "name": "approve",
      "outputs": [
        {
          "internalType": "bool",
          "name": "",
          "type": "bool"
        }
      ],
      "stateMutability": "nonpayable",
      "type": "function"
    },
    {
      "inputs": [
        {
          "internalType": "address",
          "name": "account",
          "type": "address"
        }
      ],
      "name": "balanceOf",
      "outputs": [
        {
          "internalType": "uint256",
          "name": "",
          "type": "uint256"
        }
      ],
      "stateMutability": "view",
      "type": "function"
    },
    {
      "inputs": [
        {
          "internalType": "address",
          "name": "receiver",
          "type": "address"
        }
      ],
      "name": "buyToken",
      "outputs": [
        {
          "internalType": "uint256",
          "name": "",
          "type": "uint256"
        }
      ],
      "stateMutability": "payable",
      "type": "function"
    },
    {
      "inputs": [
        {
          "internalType": "address",
          "name": "_stakeholder",
          "type": "address"
        }
      ],
      "name": "calculateReward",
      "outputs": [
        {
          "internalType": "uint256",
          "name": "",
          "type": "uint256"
        }
      ],
      "stateMutability": "view",
      "type": "function"
    },
    {
      "inputs": [
        {
          "internalType": "uint256",
          "name": "_stake",
          "type": "uint256"
        }
      ],
      "name": "createStake",
      "outputs": [],
      "stateMutability": "nonpayable",
      "type": "function"
    },
    {
      "inputs": [],
      "name": "decimals",
      "outputs": [
        {
          "internalType": "uint8",
          "name": "",
          "type": "uint8"
        }
      ],
      "stateMutability": "view",
      "type": "function"
    },
    {
      "inputs": [
        {
          "internalType": "address",
          "name": "spender",
          "type": "address"
        },
        {
          "internalType": "uint256",
          "name": "subtractedValue",
          "type": "uint256"
        }
      ],
      "name": "decreaseAllowance",
      "outputs": [
        {
          "internalType": "bool",
          "name": "",
          "type": "bool"
        }
      ],
      "stateMutability": "nonpayable",
      "type": "function"
    },
    {
      "inputs": [],
      "name": "distributeRewards",
      "outputs": [],
      "stateMutability": "nonpayable",
      "type": "function"
    },
    {
      "inputs": [
        {
          "internalType": "address",
          "name": "account",
          "type": "address"
        }
      ],
      "name": "earned",
      "outputs": [
        {
          "internalType": "uint256",
          "name": "",
          "type": "uint256"
        }
      ],
      "stateMutability": "view",
      "type": "function"
    },
    {
      "inputs": [],
      "name": "exit",
      "outputs": [],
      "stateMutability": "nonpayable",
      "type": "function"
    },
    {
      "inputs": [],
      "name": "getReward",
      "outputs": [],
      "stateMutability": "nonpayable",
      "type": "function"
    },
    {
      "inputs": [
        {
          "internalType": "address",
          "name": "spender",
          "type": "address"
        },
        {
          "internalType": "uint256",
          "name": "addedValue",
          "type": "uint256"
        }
      ],
      "name": "increaseAllowance",
      "outputs": [
        {
          "internalType": "bool",
          "name": "",
          "type": "bool"
        }
      ],
      "stateMutability": "nonpayable",
      "type": "function"
    },
    {
      "inputs": [
        {
          "internalType": "address",
          "name": "_address",
          "type": "address"
        }
      ],
      "name": "isStakeholder",
      "outputs": [
        {
          "internalType": "bool",
          "name": "",
          "type": "bool"
        },
        {
          "internalType": "uint256",
          "name": "",
          "type": "uint256"
        }
      ],
      "stateMutability": "view",
      "type": "function"
    },
    {
      "inputs": [],
      "name": "lastTimeRewardApplicable",
      "outputs": [
        {
          "internalType": "uint256",
          "name": "",
          "type": "uint256"
        }
      ],
      "stateMutability": "view",
      "type": "function"
    },
    {
      "inputs": [],
      "name": "lastUpdateTime",
      "outputs": [
        {
          "internalType": "uint256",
          "name": "",
          "type": "uint256"
        }
      ],
      "stateMutability": "view",
      "type": "function"
    },
    {
      "inputs": [
        {
          "internalType": "uint256",
          "name": "_tokenPrice",
          "type": "uint256"
        }
      ],
      "name": "modifyTokenBuyPrice",
      "outputs": [
        {
          "internalType": "uint256",
          "name": "",
          "type": "uint256"
        }
      ],
      "stateMutability": "nonpayable",
      "type": "function"
    },
    {
      "inputs": [],
      "name": "name",
      "outputs": [
        {
          "internalType": "string",
          "name": "",
          "type": "string"
        }
      ],
      "stateMutability": "view",
      "type": "function"
    },
    {
      "inputs": [],
      "name": "owner",
      "outputs": [
        {
          "internalType": "address",
          "name": "",
          "type": "address"
        }
      ],
      "stateMutability": "view",
      "type": "function"
    },
    {
      "inputs": [],
      "name": "periodFinish",
      "outputs": [
        {
          "internalType": "uint256",
          "name": "",
          "type": "uint256"
        }
      ],
      "stateMutability": "view",
      "type": "function"
    },
    {
      "inputs": [
        {
          "internalType": "uint256",
          "name": "_stake",
          "type": "uint256"
        }
      ],
      "name": "removeStake",
      "outputs": [],
      "stateMutability": "nonpayable",
      "type": "function"
    },
    {
      "inputs": [
        {
          "internalType": "address",
          "name": "_stakeholder",
          "type": "address"
        }
      ],
      "name": "removeStakeholder",
      "outputs": [],
      "stateMutability": "nonpayable",
      "type": "function"
    },
    {
      "inputs": [],
      "name": "renounceOwnership",
      "outputs": [],
      "stateMutability": "nonpayable",
      "type": "function"
    },
    {
      "inputs": [
        {
          "internalType": "address",
          "name": "_stakeholder",
          "type": "address"
        }
      ],
      "name": "rewardOf",
      "outputs": [
        {
          "internalType": "uint256",
          "name": "",
          "type": "uint256"
        }
      ],
      "stateMutability": "view",
      "type": "function"
    },
    {
      "inputs": [],
      "name": "rewardPerToken",
      "outputs": [
        {
          "internalType": "uint256",
          "name": "",
          "type": "uint256"
        }
      ],
      "stateMutability": "view",
      "type": "function"
    },
    {
      "inputs": [],
      "name": "rewardPerTokenStored",
      "outputs": [
        {
          "internalType": "uint256",
          "name": "",
          "type": "uint256"
        }
      ],
      "stateMutability": "view",
      "type": "function"
    },
    {
      "inputs": [],
      "name": "rewardRate",
      "outputs": [
        {
          "internalType": "uint256",
          "name": "",
          "type": "uint256"
        }
      ],
      "stateMutability": "view",
      "type": "function"
    },
    {
      "inputs": [],
      "name": "rewardsDuration",
      "outputs": [
        {
          "internalType": "uint256",
          "name": "",
          "type": "uint256"
        }
      ],
      "stateMutability": "view",
      "type": "function"
    },
    {
      "inputs": [
        {
          "internalType": "address",
          "name": "_stakeholder",
          "type": "address"
        }
      ],
      "name": "stakeOf",
      "outputs": [
        {
          "internalType": "uint256",
          "name": "",
          "type": "uint256"
        }
      ],
      "stateMutability": "view",
      "type": "function"
    },
    {
      "inputs": [],
      "name": "stakingBase",
      "outputs": [
        {
          "internalType": "uint256",
          "name": "",
          "type": "uint256"
        }
      ],
      "stateMutability": "view",
      "type": "function"
    },
    {
      "inputs": [],
      "name": "symbol",
      "outputs": [
        {
          "internalType": "string",
          "name": "",
          "type": "string"
        }
      ],
      "stateMutability": "view",
      "type": "function"
    },
    {
      "inputs": [],
      "name": "tokensPerEth",
      "outputs": [
        {
          "internalType": "uint256",
          "name": "",
          "type": "uint256"
        }
      ],
      "stateMutability": "view",
      "type": "function"
    },
    {
      "inputs": [],
      "name": "totalRewards",
      "outputs": [
        {
          "internalType": "uint256",
          "name": "",
          "type": "uint256"
        }
      ],
      "stateMutability": "view",
      "type": "function"
    },
    {
      "inputs": [],
      "name": "totalStakeHolders",
      "outputs": [
        {
          "internalType": "uint256",
          "name": "",
          "type": "uint256"
        }
      ],
      "stateMutability": "view",
      "type": "function"
    },
    {
      "inputs": [],
      "name": "totalStakes",
      "outputs": [
        {
          "internalType": "uint256",
          "name": "",
          "type": "uint256"
        }
      ],
      "stateMutability": "view",
      "type": "function"
    },
    {
      "inputs": [],
      "name": "totalSupply",
      "outputs": [
        {
          "internalType": "uint256",
          "name": "",
          "type": "uint256"
        }
      ],
      "stateMutability": "view",
      "type": "function"
    },
    {
      "inputs": [
        {
          "internalType": "address",
          "name": "to",
          "type": "address"
        },
        {
          "internalType": "uint256",
          "name": "amount",
          "type": "uint256"
        }
      ],
      "name": "transfer",
      "outputs": [
        {
          "internalType": "bool",
          "name": "",
          "type": "bool"
        }
      ],
      "stateMutability": "nonpayable",
      "type": "function"
    },
    {
      "inputs": [
        {
          "internalType": "address",
          "name": "from",
          "type": "address"
        },
        {
          "internalType": "address",
          "name": "to",
          "type": "address"
        },
        {
          "internalType": "uint256",
          "name": "amount",
          "type": "uint256"
        }
      ],
      "name": "transferFrom",
      "outputs": [
        {
          "internalType": "bool",
          "name": "",
          "type": "bool"
        }
      ],
      "stateMutability": "nonpayable",
      "type": "function"
    },
    {
      "inputs": [
        {
          "internalType": "address",
          "name": "newOwner",
          "type": "address"
        }
      ],
      "name": "transferOwnership",
      "outputs": [],
      "stateMutability": "nonpayable",
      "type": "function"
    },
    {
      "inputs": [
        {
          "internalType": "address",
          "name": "",
          "type": "address"
        }
      ],
      "name": "userRewardPerTokenPaid",
      "outputs": [
        {
          "internalType": "uint256",
          "name": "",
          "type": "uint256"
        }
      ],
      "stateMutability": "view",
      "type": "function"
    },
    {
      "inputs": [],
      "name": "withdrawReward",
      "outputs": [],
      "stateMutability": "nonpayable",
      "type": "function"
    }
  ],
  "bytecode": "0x60a0604052670de0b6b3a764000060809081525060006007556000600855603c6009556103e86010553480156200003557600080fd5b506040518060400160405280600681526020017f53616d45524300000000000000000000000000000000000000000000000000008152506040518060400160405280600381526020017f53524300000000000000000000000000000000000000000000000000000000008152508160039080519060200190620000ba9291906200039c565b508060049080519060200190620000d39291906200039c565b505050620000f6620000ea6200014260201b60201c565b6200014a60201b60201c565b60016006819055506200013c33620001136200021060201b60201c565b600a6200012191906200058c565b6103e8620001309190620006c9565b6200021960201b60201c565b6200080b565b600033905090565b6000600560009054906101000a900473ffffffffffffffffffffffffffffffffffffffff16905081600560006101000a81548173ffffffffffffffffffffffffffffffffffffffff021916908373ffffffffffffffffffffffffffffffffffffffff1602179055508173ffffffffffffffffffffffffffffffffffffffff168173ffffffffffffffffffffffffffffffffffffffff167f8be0079c531659141344cd1fd0a4f28419497f9722a3daafe3b4186f6b6457e060405160405180910390a35050565b60006012905090565b600073ffffffffffffffffffffffffffffffffffffffff168273ffffffffffffffffffffffffffffffffffffffff1614156200028c576040517f08c379a0000000000000000000000000000000000000000000000000000000008152600401620002839062000484565b60405180910390fd5b620002a0600083836200039260201b60201c565b8060026000828254620002b49190620004d4565b92505081905550806000808473ffffffffffffffffffffffffffffffffffffffff1673ffffffffffffffffffffffffffffffffffffffff16815260200190815260200160002060008282546200030b9190620004d4565b925050819055508173ffffffffffffffffffffffffffffffffffffffff16600073ffffffffffffffffffffffffffffffffffffffff167fddf252ad1be2c89b69c2b068fc378daa952ba7f163c4a11628f55a4df523b3ef83604051620003729190620004a6565b60405180910390a36200038e600083836200039760201b60201c565b5050565b505050565b505050565b828054620003aa9062000741565b90600052602060002090601f016020900481019282620003ce57600085556200041a565b82601f10620003e957805160ff19168380011785556200041a565b828001600101855582156200041a579182015b8281111562000419578251825591602001919060010190620003fc565b5b5090506200042991906200042d565b5090565b5b80821115620004485760008160009055506001016200042e565b5090565b60006200045b601f83620004c3565b91506200046882620007e2565b602082019050919050565b6200047e816200072a565b82525050565b600060208201905081810360008301526200049f816200044c565b9050919050565b6000602082019050620004bd600083018462000473565b92915050565b600082825260208201905092915050565b6000620004e1826200072a565b9150620004ee836200072a565b9250827fffffffffffffffffffffffffffffffffffffffffffffffffffffffffffffffff0382111562000526576200052562000777565b5b828201905092915050565b6000808291508390505b600185111562000583578086048111156200055b576200055a62000777565b5b60018516156200056b5780820291505b80810290506200057b85620007d5565b94506200053b565b94509492505050565b600062000599826200072a565b9150620005a68362000734565b9250620005d57fffffffffffffffffffffffffffffffffffffffffffffffffffffffffffffffff8484620005dd565b905092915050565b600082620005ef5760019050620006c2565b81620005ff5760009050620006c2565b8160018114620006185760028114620006235762000659565b6001915050620006c2565b60ff84111562000638576200063762000777565b5b8360020a91508482111562000652576200065162000777565b5b50620006c2565b5060208310610133831016604e8410600b8410161715620006935782820a9050838111156200068d576200068c62000777565b5b620006c2565b620006a2848484600162000531565b92509050818404811115620006bc57620006bb62000777565b5b81810290505b9392505050565b6000620006d6826200072a565b9150620006e3836200072a565b9250817fffffffffffffffffffffffffffffffffffffffffffffffffffffffffffffffff04831182151516156200071f576200071e62000777565b5b828202905092915050565b6000819050919050565b600060ff82169050919050565b600060028204905060018216806200075a57607f821691505b60208210811415620007715762000770620007a6565b5b50919050565b7f4e487b7100000000000000000000000000000000000000000000000000000000600052601160045260246000fd5b7f4e487b7100000000000000000000000000000000000000000000000000000000600052602260045260246000fd5b60008160011c9050919050565b7f45524332303a206d696e7420746f20746865207a65726f206164647265737300600082015250565b6080516138956200083560003960008181610a3b015281816112a60152611e1101526138956000f3fe6080604052600436106102505760003560e01c80638b87634711610139578063cbdd69b5116100b6578063e4c905011161007a578063e4c90501146108fa578063e5c42fd114610925578063e9fad8ee1461094e578063ebe2b12b14610965578063ef037b9014610990578063f2fde38b146109ce57610250565b8063cbdd69b5146107ff578063cd3daf9d1461082a578063d82e396214610855578063dd62ed3e14610892578063df136d65146108cf57610250565b8063a9059cbb116100fd578063a9059cbb1461072c578063bcb0c2d714610769578063bf9befb114610792578063c885bc58146107bd578063c8f33c91146107d457610250565b80638b876347146106335780638da5cb5b14610670578063939624ab1461069b57806395d89b41146106c4578063a457c2d7146106ef57610250565b806339509351116101d257806370a082311161019657806370a082311461051c578063715018a6146105595780637b0a47ee146105705780637e72fb521461059b57806380faa57d146105cb578063834dc984146105f657610250565b806339509351146104495780633d18b91214610486578063426233601461049d5780636041c34f146104da5780636f4a2cd01461050557610250565b80631bf6ddae116102195780631bf6ddae146103505780631d62ebd91461037957806323b872dd146103b6578063313ce567146103f3578063386a95251461041e57610250565b80628cc2621461025557806306fdde0314610292578063095ea7b3146102bd5780630e15561a146102fa57806318160ddd14610325575b600080fd5b34801561026157600080fd5b5061027c60048036038101906102779190612b13565b6109f7565b6040516102899190613089565b60405180910390f35b34801561029e57600080fd5b506102a7610ada565b6040516102b49190612ec7565b60405180910390f35b3480156102c957600080fd5b506102e460048036038101906102df9190612bc7565b610b6c565b6040516102f19190612e83565b60405180910390f35b34801561030657600080fd5b5061030f610b8f565b60405161031c9190613089565b60405180910390f35b34801561033157600080fd5b5061033a610c7a565b6040516103479190613089565b60405180910390f35b34801561035c57600080fd5b5061037760048036038101906103729190612c03565b610c84565b005b34801561038557600080fd5b506103a0600480360381019061039b9190612b13565b610f01565b6040516103ad9190613089565b60405180910390f35b3480156103c257600080fd5b506103dd60048036038101906103d89190612b78565b610f4a565b6040516103ea9190612e83565b60405180910390f35b3480156103ff57600080fd5b50610408610f79565b60405161041591906130a4565b60405180910390f35b34801561042a57600080fd5b50610433610f82565b6040516104409190613089565b60405180910390f35b34801561045557600080fd5b50610470600480360381019061046b9190612bc7565b610f88565b60405161047d9190612e83565b60405180910390f35b34801561049257600080fd5b5061049b611032565b005b3480156104a957600080fd5b506104c460048036038101906104bf9190612b13565b61125b565b6040516104d19190613089565b60405180910390f35b3480156104e657600080fd5b506104ef6112a4565b6040516104fc9190613089565b60405180910390f35b34801561051157600080fd5b5061051a6112c8565b005b34801561052857600080fd5b50610543600480360381019061053e9190612b13565b611478565b6040516105509190613089565b60405180910390f35b34801561056557600080fd5b5061056e6114c0565b005b34801561057c57600080fd5b50610585611548565b6040516105929190613089565b60405180910390f35b6105b560048036038101906105b09190612b13565b61154e565b6040516105c29190613089565b60405180910390f35b3480156105d757600080fd5b506105e061159e565b6040516105ed9190613089565b60405180910390f35b34801561060257600080fd5b5061061d60048036038101906106189190612c03565b6115b8565b60405161062a9190613089565b60405180910390f35b34801561063f57600080fd5b5061065a60048036038101906106559190612b13565b611680565b6040516106679190613089565b60405180910390f35b34801561067c57600080fd5b50610685611698565b6040516106929190612e68565b60405180910390f35b3480156106a757600080fd5b506106c260048036038101906106bd9190612c03565b6116c2565b005b3480156106d057600080fd5b506106d961193f565b6040516106e69190612ec7565b60405180910390f35b3480156106fb57600080fd5b5061071660048036038101906107119190612bc7565b6119d1565b6040516107239190612e83565b60405180910390f35b34801561073857600080fd5b50610753600480360381019061074e9190612bc7565b611abb565b6040516107609190612e83565b60405180910390f35b34801561077557600080fd5b50610790600480360381019061078b9190612b13565b611ade565b005b34801561079e57600080fd5b506107a7611c5f565b6040516107b49190613089565b60405180910390f35b3480156107c957600080fd5b506107d2611d4a565b005b3480156107e057600080fd5b506107e9611de0565b6040516107f69190613089565b60405180910390f35b34801561080b57600080fd5b50610814611de6565b6040516108219190613089565b60405180910390f35b34801561083657600080fd5b5061083f611dec565b60405161084c9190613089565b60405180910390f35b34801561086157600080fd5b5061087c60048036038101906108779190612b13565b611e79565b6040516108899190613089565b60405180910390f35b34801561089e57600080fd5b506108b960048036038101906108b49190612b3c565b611ece565b6040516108c69190613089565b60405180910390f35b3480156108db57600080fd5b506108e4611f55565b6040516108f19190613089565b60405180910390f35b34801561090657600080fd5b5061090f611f5b565b60405161091c9190613089565b60405180910390f35b34801561093157600080fd5b5061094c60048036038101906109479190612b13565b611f68565b005b34801561095a57600080fd5b50610963611fe3565b005b34801561097157600080fd5b5061097a611ffe565b6040516109879190613089565b60405180910390f35b34801561099c57600080fd5b506109b760048036038101906109b29190612b13565b612004565b6040516109c5929190612e9e565b60405180910390f35b3480156109da57600080fd5b506109f560048036038101906109f09190612b13565b6120de565b005b6000600f60008373ffffffffffffffffffffffffffffffffffffffff1673ffffffffffffffffffffffffffffffffffffffff168152602001908152602001600020547f0000000000000000000000000000000000000000000000000000000000000000600c60008573ffffffffffffffffffffffffffffffffffffffff1673ffffffffffffffffffffffffffffffffffffffff16815260200190815260200160002054610aa2611dec565b610aac919061332d565b610ab585611478565b610abf91906132d3565b610ac99190613131565b610ad391906130db565b9050919050565b606060038054610ae9906133e9565b80601f0160208091040260200160405190810160405280929190818152602001828054610b15906133e9565b8015610b625780601f10610b3757610100808354040283529160200191610b62565b820191906000526020600020905b815481529060010190602001808311610b4557829003601f168201915b5050505050905090565b600080610b776121d6565b9050610b848185856121de565b600191505092915050565b6000806000905060005b600d80549050811015610c7257610c5c600f6000600d8481548110610be7577f4e487b7100000000000000000000000000000000000000000000000000000000600052603260045260246000fd5b9060005260206000200160009054906101000a900473ffffffffffffffffffffffffffffffffffffffff1673ffffffffffffffffffffffffffffffffffffffff1673ffffffffffffffffffffffffffffffffffffffff16815260200190815260200160002054836123a990919063ffffffff16565b9150600181610c6b91906130db565b9050610b99565b508091505090565b6000600254905090565b60026006541415610cca576040517f08c379a0000000000000000000000000000000000000000000000000000000008152600401610cc190613029565b60405180910390fd5b600260068190555033610cdb611dec565b600b81905550610ce961159e565b600a81905550600073ffffffffffffffffffffffffffffffffffffffff168173ffffffffffffffffffffffffffffffffffffffff1614610db657610d2c816109f7565b600f60008373ffffffffffffffffffffffffffffffffffffffff1673ffffffffffffffffffffffffffffffffffffffff16815260200190815260200160002081905550600b54600c60008373ffffffffffffffffffffffffffffffffffffffff1673ffffffffffffffffffffffffffffffffffffffff168152602001908152602001600020819055505b610dc033836123bf565b6000600e60003373ffffffffffffffffffffffffffffffffffffffff1673ffffffffffffffffffffffffffffffffffffffff168152602001908152602001600020541415610e1257610e1133611f68565b5b610e6482600e60003373ffffffffffffffffffffffffffffffffffffffff1673ffffffffffffffffffffffffffffffffffffffff168152602001908152602001600020546123a990919063ffffffff16565b600e60003373ffffffffffffffffffffffffffffffffffffffff1673ffffffffffffffffffffffffffffffffffffffff168152602001908152602001600020819055503373ffffffffffffffffffffffffffffffffffffffff167f9e71bc8eea02a63969f509818f2dafb9254532904319f9dbda79b67bd34a5f3d83604051610eed9190613089565b60405180910390a250600160068190555050565b6000600f60008373ffffffffffffffffffffffffffffffffffffffff1673ffffffffffffffffffffffffffffffffffffffff168152602001908152602001600020549050919050565b600080610f556121d6565b9050610f62858285612596565b610f6d858585612622565b60019150509392505050565b60006012905090565b60095481565b600080610f936121d6565b9050611027818585600160008673ffffffffffffffffffffffffffffffffffffffff1673ffffffffffffffffffffffffffffffffffffffff16815260200190815260200160002060008973ffffffffffffffffffffffffffffffffffffffff1673ffffffffffffffffffffffffffffffffffffffff1681526020019081526020016000205461102291906130db565b6121de565b600191505092915050565b60026006541415611078576040517f08c379a000000000000000000000000000000000000000000000000000000000815260040161106f90613029565b60405180910390fd5b600260068190555033611089611dec565b600b8190555061109761159e565b600a81905550600073ffffffffffffffffffffffffffffffffffffffff168173ffffffffffffffffffffffffffffffffffffffff1614611164576110da816109f7565b600f60008373ffffffffffffffffffffffffffffffffffffffff1673ffffffffffffffffffffffffffffffffffffffff16815260200190815260200160002081905550600b54600c60008373ffffffffffffffffffffffffffffffffffffffff1673ffffffffffffffffffffffffffffffffffffffff168152602001908152602001600020819055505b6000600f60003373ffffffffffffffffffffffffffffffffffffffff1673ffffffffffffffffffffffffffffffffffffffff168152602001908152602001600020549050600081111561124f576000600f60003373ffffffffffffffffffffffffffffffffffffffff1673ffffffffffffffffffffffffffffffffffffffff1681526020019081526020016000208190555061120033826128a3565b3373ffffffffffffffffffffffffffffffffffffffff167fe2403640ba68fed3a2f88b7557551d1993f84b99bb10ff833f0cf8db0c5e0486826040516112469190613089565b60405180910390a25b50506001600681905550565b6000600e60008373ffffffffffffffffffffffffffffffffffffffff1673ffffffffffffffffffffffffffffffffffffffff168152602001908152602001600020549050919050565b7f000000000000000000000000000000000000000000000000000000000000000081565b6112d06121d6565b73ffffffffffffffffffffffffffffffffffffffff166112ee611698565b73ffffffffffffffffffffffffffffffffffffffff1614611344576040517f08c379a000000000000000000000000000000000000000000000000000000000815260040161133b90612fa9565b60405180910390fd5b60005b600d80549050811015611475576000600d8281548110611390577f4e487b7100000000000000000000000000000000000000000000000000000000600052603260045260246000fd5b9060005260206000200160009054906101000a900473ffffffffffffffffffffffffffffffffffffffff16905060006113c882611e79565b905061141c81600f60008573ffffffffffffffffffffffffffffffffffffffff1673ffffffffffffffffffffffffffffffffffffffff168152602001908152602001600020546123a990919063ffffffff16565b600f60008473ffffffffffffffffffffffffffffffffffffffff1673ffffffffffffffffffffffffffffffffffffffff16815260200190815260200160002081905550505060018161146e91906130db565b9050611347565b50565b60008060008373ffffffffffffffffffffffffffffffffffffffff1673ffffffffffffffffffffffffffffffffffffffff168152602001908152602001600020549050919050565b6114c86121d6565b73ffffffffffffffffffffffffffffffffffffffff166114e6611698565b73ffffffffffffffffffffffffffffffffffffffff161461153c576040517f08c379a000000000000000000000000000000000000000000000000000000000815260040161153390612fa9565b60405180910390fd5b6115466000612a03565b565b60085481565b60008060105461155c610f79565b600a61156891906131b5565b600161157491906132d3565b3461157f9190613131565b61158991906132d3565b905061159583826128a3565b80915050919050565b600060075442106115b1576007546115b3565b425b905090565b60006115c26121d6565b73ffffffffffffffffffffffffffffffffffffffff166115e0611698565b73ffffffffffffffffffffffffffffffffffffffff1614611636576040517f08c379a000000000000000000000000000000000000000000000000000000000815260040161162d90612fa9565b60405180910390fd5b816010819055507f6b361c807733cc94a3b7bda39c1c94dcc0511e91aa47b0f7f918068e9397689060105460405161166e9190613089565b60405180910390a16010549050919050565b600c6020528060005260406000206000915090505481565b6000600560009054906101000a900473ffffffffffffffffffffffffffffffffffffffff16905090565b60026006541415611708576040517f08c379a00000000000000000000000000000000000000000000000000000000081526004016116ff90613029565b60405180910390fd5b600260068190555033611719611dec565b600b8190555061172761159e565b600a81905550600073ffffffffffffffffffffffffffffffffffffffff168173ffffffffffffffffffffffffffffffffffffffff16146117f45761176a816109f7565b600f60008373ffffffffffffffffffffffffffffffffffffffff1673ffffffffffffffffffffffffffffffffffffffff16815260200190815260200160002081905550600b54600c60008373ffffffffffffffffffffffffffffffffffffffff1673ffffffffffffffffffffffffffffffffffffffff168152602001908152602001600020819055505b61184682600e60003373ffffffffffffffffffffffffffffffffffffffff1673ffffffffffffffffffffffffffffffffffffffff16815260200190815260200160002054612ac990919063ffffffff16565b600e60003373ffffffffffffffffffffffffffffffffffffffff1673ffffffffffffffffffffffffffffffffffffffff168152602001908152602001600020819055506000600e60003373ffffffffffffffffffffffffffffffffffffffff1673ffffffffffffffffffffffffffffffffffffffff1681526020019081526020016000205414156118db576118da33611ade565b5b6118e533836128a3565b3373ffffffffffffffffffffffffffffffffffffffff167f7084f5476618d8e60b11ef0d7d3f06914655adb8793e28ff7f018d4c76d505d58360405161192b9190613089565b60405180910390a250600160068190555050565b60606004805461194e906133e9565b80601f016020809104026020016040519081016040528092919081815260200182805461197a906133e9565b80156119c75780601f1061199c576101008083540402835291602001916119c7565b820191906000526020600020905b8154815290600101906020018083116119aa57829003601f168201915b5050505050905090565b6000806119dc6121d6565b90506000600160008373ffffffffffffffffffffffffffffffffffffffff1673ffffffffffffffffffffffffffffffffffffffff16815260200190815260200160002060008673ffffffffffffffffffffffffffffffffffffffff1673ffffffffffffffffffffffffffffffffffffffff16815260200190815260200160002054905083811015611aa2576040517f08c379a0000000000000000000000000000000000000000000000000000000008152600401611a9990613049565b60405180910390fd5b611aaf82868684036121de565b60019250505092915050565b600080611ac66121d6565b9050611ad3818585612622565b600191505092915050565b600080611aea83612004565b915091508115611c5a57600d6001600d80549050611b08919061332d565b81548110611b3f577f4e487b7100000000000000000000000000000000000000000000000000000000600052603260045260246000fd5b9060005260206000200160009054906101000a900473ffffffffffffffffffffffffffffffffffffffff16600d8281548110611ba4577f4e487b7100000000000000000000000000000000000000000000000000000000600052603260045260246000fd5b9060005260206000200160006101000a81548173ffffffffffffffffffffffffffffffffffffffff021916908373ffffffffffffffffffffffffffffffffffffffff160217905550600d805480611c24577f4e487b7100000000000000000000000000000000000000000000000000000000600052603160045260246000fd5b6001900381819060005260206000200160006101000a81549073ffffffffffffffffffffffffffffffffffffffff021916905590555b505050565b6000806000905060005b600d80549050811015611d4257611d2c600e6000600d8481548110611cb7577f4e487b7100000000000000000000000000000000000000000000000000000000600052603260045260246000fd5b9060005260206000200160009054906101000a900473ffffffffffffffffffffffffffffffffffffffff1673ffffffffffffffffffffffffffffffffffffffff1673ffffffffffffffffffffffffffffffffffffffff16815260200190815260200160002054836123a990919063ffffffff16565b9150600181611d3b91906130db565b9050611c69565b508091505090565b6000600f60003373ffffffffffffffffffffffffffffffffffffffff1673ffffffffffffffffffffffffffffffffffffffff1681526020019081526020016000205490506000600f60003373ffffffffffffffffffffffffffffffffffffffff1673ffffffffffffffffffffffffffffffffffffffff16815260200190815260200160002081905550611ddd33826128a3565b50565b600a5481565b60105481565b600080611df7610c7a565b1415611e0757600b549050611e76565b611e0f610c7a565b7f0000000000000000000000000000000000000000000000000000000000000000600854600a54611e3e61159e565b611e48919061332d565b611e5291906132d3565b611e5c91906132d3565b611e669190613131565b600b54611e7391906130db565b90505b90565b60006064600e60008473ffffffffffffffffffffffffffffffffffffffff1673ffffffffffffffffffffffffffffffffffffffff16815260200190815260200160002054611ec79190613131565b9050919050565b6000600160008473ffffffffffffffffffffffffffffffffffffffff1673ffffffffffffffffffffffffffffffffffffffff16815260200190815260200160002060008373ffffffffffffffffffffffffffffffffffffffff1673ffffffffffffffffffffffffffffffffffffffff16815260200190815260200160002054905092915050565b600b5481565b6000600d80549050905090565b6000611f7382612004565b50905080611fdf57600d829080600181540180825580915050600190039060005260206000200160009091909190916101000a81548173ffffffffffffffffffffffffffffffffffffffff021916908373ffffffffffffffffffffffffffffffffffffffff1602179055505b5050565b611ff4611fef33611478565b6116c2565b611ffc611032565b565b60075481565b60008060005b600d805490508110156120d057600d8181548110612051577f4e487b7100000000000000000000000000000000000000000000000000000000600052603260045260246000fd5b9060005260206000200160009054906101000a900473ffffffffffffffffffffffffffffffffffffffff1673ffffffffffffffffffffffffffffffffffffffff168473ffffffffffffffffffffffffffffffffffffffff1614156120bc5760018192509250506120d9565b6001816120c991906130db565b905061200a565b50600080915091505b915091565b6120e66121d6565b73ffffffffffffffffffffffffffffffffffffffff16612104611698565b73ffffffffffffffffffffffffffffffffffffffff161461215a576040517f08c379a000000000000000000000000000000000000000000000000000000000815260040161215190612fa9565b60405180910390fd5b600073ffffffffffffffffffffffffffffffffffffffff168173ffffffffffffffffffffffffffffffffffffffff1614156121ca576040517f08c379a00000000000000000000000000000000000000000000000000000000081526004016121c190612f29565b60405180910390fd5b6121d381612a03565b50565b600033905090565b600073ffffffffffffffffffffffffffffffffffffffff168373ffffffffffffffffffffffffffffffffffffffff16141561224e576040517f08c379a000000000000000000000000000000000000000000000000000000000815260040161224590613009565b60405180910390fd5b600073ffffffffffffffffffffffffffffffffffffffff168273ffffffffffffffffffffffffffffffffffffffff1614156122be576040517f08c379a00000000000000000000000000000000000000000000000000000000081526004016122b590612f49565b60405180910390fd5b80600160008573ffffffffffffffffffffffffffffffffffffffff1673ffffffffffffffffffffffffffffffffffffffff16815260200190815260200160002060008473ffffffffffffffffffffffffffffffffffffffff1673ffffffffffffffffffffffffffffffffffffffff168152602001908152602001600020819055508173ffffffffffffffffffffffffffffffffffffffff168373ffffffffffffffffffffffffffffffffffffffff167f8c5be1e5ebec7d5bd14f71427d1e84f3dd0314c0f7b2291e5b200ac8c7c3b9258360405161239c9190613089565b60405180910390a3505050565b600081836123b791906130db565b905092915050565b600073ffffffffffffffffffffffffffffffffffffffff168273ffffffffffffffffffffffffffffffffffffffff16141561242f576040517f08c379a000000000000000000000000000000000000000000000000000000000815260040161242690612fc9565b60405180910390fd5b61243b82600083612adf565b60008060008473ffffffffffffffffffffffffffffffffffffffff1673ffffffffffffffffffffffffffffffffffffffff168152602001908152602001600020549050818110156124c1576040517f08c379a00000000000000000000000000000000000000000000000000000000081526004016124b890612f09565b60405180910390fd5b8181036000808573ffffffffffffffffffffffffffffffffffffffff1673ffffffffffffffffffffffffffffffffffffffff168152602001908152602001600020819055508160026000828254612518919061332d565b92505081905550600073ffffffffffffffffffffffffffffffffffffffff168373ffffffffffffffffffffffffffffffffffffffff167fddf252ad1be2c89b69c2b068fc378daa952ba7f163c4a11628f55a4df523b3ef8460405161257d9190613089565b60405180910390a361259183600084612ae4565b505050565b60006125a28484611ece565b90507fffffffffffffffffffffffffffffffffffffffffffffffffffffffffffffffff811461261c578181101561260e576040517f08c379a000000000000000000000000000000000000000000000000000000000815260040161260590612f69565b60405180910390fd5b61261b84848484036121de565b5b50505050565b600073ffffffffffffffffffffffffffffffffffffffff168373ffffffffffffffffffffffffffffffffffffffff161415612692576040517f08c379a000000000000000000000000000000000000000000000000000000000815260040161268990612fe9565b60405180910390fd5b600073ffffffffffffffffffffffffffffffffffffffff168273ffffffffffffffffffffffffffffffffffffffff161415612702576040517f08c379a00000000000000000000000000000000000000000000000000000000081526004016126f990612ee9565b60405180910390fd5b61270d838383612adf565b60008060008573ffffffffffffffffffffffffffffffffffffffff1673ffffffffffffffffffffffffffffffffffffffff16815260200190815260200160002054905081811015612793576040517f08c379a000000000000000000000000000000000000000000000000000000000815260040161278a90612f89565b60405180910390fd5b8181036000808673ffffffffffffffffffffffffffffffffffffffff1673ffffffffffffffffffffffffffffffffffffffff16815260200190815260200160002081905550816000808573ffffffffffffffffffffffffffffffffffffffff1673ffffffffffffffffffffffffffffffffffffffff168152602001908152602001600020600082825461282691906130db565b925050819055508273ffffffffffffffffffffffffffffffffffffffff168473ffffffffffffffffffffffffffffffffffffffff167fddf252ad1be2c89b69c2b068fc378daa952ba7f163c4a11628f55a4df523b3ef8460405161288a9190613089565b60405180910390a361289d848484612ae4565b50505050565b600073ffffffffffffffffffffffffffffffffffffffff168273ffffffffffffffffffffffffffffffffffffffff161415612913576040517f08c379a000000000000000000000000000000000000000000000000000000000815260040161290a90613069565b60405180910390fd5b61291f60008383612adf565b806002600082825461293191906130db565b92505081905550806000808473ffffffffffffffffffffffffffffffffffffffff1673ffffffffffffffffffffffffffffffffffffffff168152602001908152602001600020600082825461298691906130db565b925050819055508173ffffffffffffffffffffffffffffffffffffffff16600073ffffffffffffffffffffffffffffffffffffffff167fddf252ad1be2c89b69c2b068fc378daa952ba7f163c4a11628f55a4df523b3ef836040516129eb9190613089565b60405180910390a36129ff60008383612ae4565b5050565b6000600560009054906101000a900473ffffffffffffffffffffffffffffffffffffffff16905081600560006101000a81548173ffffffffffffffffffffffffffffffffffffffff021916908373ffffffffffffffffffffffffffffffffffffffff1602179055508173ffffffffffffffffffffffffffffffffffffffff168173ffffffffffffffffffffffffffffffffffffffff167f8be0079c531659141344cd1fd0a4f28419497f9722a3daafe3b4186f6b6457e060405160405180910390a35050565b60008183612ad7919061332d565b905092915050565b505050565b505050565b600081359050612af881613831565b92915050565b600081359050612b0d81613848565b92915050565b600060208284031215612b2557600080fd5b6000612b3384828501612ae9565b91505092915050565b60008060408385031215612b4f57600080fd5b6000612b5d85828601612ae9565b9250506020612b6e85828601612ae9565b9150509250929050565b600080600060608486031215612b8d57600080fd5b6000612b9b86828701612ae9565b9350506020612bac86828701612ae9565b9250506040612bbd86828701612afe565b9150509250925092565b60008060408385031215612bda57600080fd5b6000612be885828601612ae9565b9250506020612bf985828601612afe565b9150509250929050565b600060208284031215612c1557600080fd5b6000612c2384828501612afe565b91505092915050565b612c3581613361565b82525050565b612c4481613373565b82525050565b6000612c55826130bf565b612c5f81856130ca565b9350612c6f8185602086016133b6565b612c78816134a8565b840191505092915050565b6000612c906023836130ca565b9150612c9b826134c6565b604082019050919050565b6000612cb36022836130ca565b9150612cbe82613515565b604082019050919050565b6000612cd66026836130ca565b9150612ce182613564565b604082019050919050565b6000612cf96022836130ca565b9150612d04826135b3565b604082019050919050565b6000612d1c601d836130ca565b9150612d2782613602565b602082019050919050565b6000612d3f6026836130ca565b9150612d4a8261362b565b604082019050919050565b6000612d626020836130ca565b9150612d6d8261367a565b602082019050919050565b6000612d856021836130ca565b9150612d90826136a3565b604082019050919050565b6000612da86025836130ca565b9150612db3826136f2565b604082019050919050565b6000612dcb6024836130ca565b9150612dd682613741565b604082019050919050565b6000612dee601f836130ca565b9150612df982613790565b602082019050919050565b6000612e116025836130ca565b9150612e1c826137b9565b604082019050919050565b6000612e34601f836130ca565b9150612e3f82613808565b602082019050919050565b612e538161339f565b82525050565b612e62816133a9565b82525050565b6000602082019050612e7d6000830184612c2c565b92915050565b6000602082019050612e986000830184612c3b565b92915050565b6000604082019050612eb36000830185612c3b565b612ec06020830184612e4a565b9392505050565b60006020820190508181036000830152612ee18184612c4a565b905092915050565b60006020820190508181036000830152612f0281612c83565b9050919050565b60006020820190508181036000830152612f2281612ca6565b9050919050565b60006020820190508181036000830152612f4281612cc9565b9050919050565b60006020820190508181036000830152612f6281612cec565b9050919050565b60006020820190508181036000830152612f8281612d0f565b9050919050565b60006020820190508181036000830152612fa281612d32565b9050919050565b60006020820190508181036000830152612fc281612d55565b9050919050565b60006020820190508181036000830152612fe281612d78565b9050919050565b6000602082019050818103600083015261300281612d9b565b9050919050565b6000602082019050818103600083015261302281612dbe565b9050919050565b6000602082019050818103600083015261304281612de1565b9050919050565b6000602082019050818103600083015261306281612e04565b9050919050565b6000602082019050818103600083015261308281612e27565b9050919050565b600060208201905061309e6000830184612e4a565b92915050565b60006020820190506130b96000830184612e59565b92915050565b600081519050919050565b600082825260208201905092915050565b60006130e68261339f565b91506130f18361339f565b9250827fffffffffffffffffffffffffffffffffffffffffffffffffffffffffffffffff038211156131265761312561341b565b5b828201905092915050565b600061313c8261339f565b91506131478361339f565b9250826131575761315661344a565b5b828204905092915050565b6000808291508390505b60018511156131ac578086048111156131885761318761341b565b5b60018516156131975780820291505b80810290506131a5856134b9565b945061316c565b94509492505050565b60006131c08261339f565b91506131cb836133a9565b92506131f87fffffffffffffffffffffffffffffffffffffffffffffffffffffffffffffffff8484613200565b905092915050565b60008261321057600190506132cc565b8161321e57600090506132cc565b8160018114613234576002811461323e5761326d565b60019150506132cc565b60ff8411156132505761324f61341b565b5b8360020a9150848211156132675761326661341b565b5b506132cc565b5060208310610133831016604e8410600b84101617156132a25782820a90508381111561329d5761329c61341b565b5b6132cc565b6132af8484846001613162565b925090508184048111156132c6576132c561341b565b5b81810290505b9392505050565b60006132de8261339f565b91506132e98361339f565b9250817fffffffffffffffffffffffffffffffffffffffffffffffffffffffffffffffff04831182151516156133225761332161341b565b5b828202905092915050565b60006133388261339f565b91506133438361339f565b9250828210156133565761335561341b565b5b828203905092915050565b600061336c8261337f565b9050919050565b60008115159050919050565b600073ffffffffffffffffffffffffffffffffffffffff82169050919050565b6000819050919050565b600060ff82169050919050565b60005b838110156133d45780820151818401526020810190506133b9565b838111156133e3576000848401525b50505050565b6000600282049050600182168061340157607f821691505b6020821081141561341557613414613479565b5b50919050565b7f4e487b7100000000000000000000000000000000000000000000000000000000600052601160045260246000fd5b7f4e487b7100000000000000000000000000000000000000000000000000000000600052601260045260246000fd5b7f4e487b7100000000000000000000000000000000000000000000000000000000600052602260045260246000fd5b6000601f19601f8301169050919050565b60008160011c9050919050565b7f45524332303a207472616e7366657220746f20746865207a65726f206164647260008201527f6573730000000000000000000000000000000000000000000000000000000000602082015250565b7f45524332303a206275726e20616d6f756e7420657863656564732062616c616e60008201527f6365000000000000000000000000000000000000000000000000000000000000602082015250565b7f4f776e61626c653a206e6577206f776e657220697320746865207a65726f206160008201527f6464726573730000000000000000000000000000000000000000000000000000602082015250565b7f45524332303a20617070726f766520746f20746865207a65726f20616464726560008201527f7373000000000000000000000000000000000000000000000000000000000000602082015250565b7f45524332303a20696e73756666696369656e7420616c6c6f77616e6365000000600082015250565b7f45524332303a207472616e7366657220616d6f756e742065786365656473206260008201527f616c616e63650000000000000000000000000000000000000000000000000000602082015250565b7f4f776e61626c653a2063616c6c6572206973206e6f7420746865206f776e6572600082015250565b7f45524332303a206275726e2066726f6d20746865207a65726f2061646472657360008201527f7300000000000000000000000000000000000000000000000000000000000000602082015250565b7f45524332303a207472616e736665722066726f6d20746865207a65726f20616460008201527f6472657373000000000000000000000000000000000000000000000000000000602082015250565b7f45524332303a20617070726f76652066726f6d20746865207a65726f2061646460008201527f7265737300000000000000000000000000000000000000000000000000000000602082015250565b7f5265656e7472616e637947756172643a207265656e7472616e742063616c6c00600082015250565b7f45524332303a2064656372656173656420616c6c6f77616e63652062656c6f7760008201527f207a65726f000000000000000000000000000000000000000000000000000000602082015250565b7f45524332303a206d696e7420746f20746865207a65726f206164647265737300600082015250565b61383a81613361565b811461384557600080fd5b50565b6138518161339f565b811461385c57600080fd5b5056fea2646970667358221220ab82b0d8a27f54e32547996ef8782e3a092946775d81aa53edd21112d9d5cc7b64736f6c63430008040033",
  "linkReferences": {},
  "deployedLinkReferences": {}
}